:020000040800F2
:10000000F8060020C92800087D0800087F080008BD
:1000100083080008870800088B080008000000001B
:100020000000000000000000000000008F08000831
:1000300091080008000000009308000895080008D7
:10004000E3280008E3280008E3280008E328000864
:10005000E3280008E3280008E3280008E328000854
:10006000E3280008E3280008E3280008E328000844
:10007000E3280008E3280008E3280008E328000834
:10008000E3280008E3280008E3280008E328000824
:10009000E3280008E3280008E3280008E328000814
:1000A000E3280008E3280008E3280008E328000804
:1000B000952D0008E3280008E3280008E32800083D
:1000C000E3280008E3280008E3280008E3280008E4
:1000D000E3280008932A0008E3280008E328000822
:1000E000E3280008E3280008E3280008E3280008C4
:1000F000E3280008E3280008E3280008E3280008B4
:10010000E3280008E3280008E3280008E3280008A3
:10011000E3280008E3280008E3280008E328000893
:10012000E3280008E3280008E3280008E328000883
:1001300000F002F800F03AF80AA090E8000C8244BF
:100140008344AAF10107DA4501D100F02FF8AFF29C
:10015000090EBAE80F0013F0010F18BFFB1A43F0A5
:10016000010318473843000058430000103A24BFE9
:1001700078C878C1FAD8520724BF30C830C144BF0C
:1001800004680C607047000000230024002500264E
:10019000103A28BF78C1FBD8520728BF30C148BFEA
:1001A0000B6070471FB51FBD10B510BD03F06AFC92
:1001B0001146FFF7F7FF00F022F803F088FC03B4C4
:1001C000FFF7F2FF03BC02F009FC000008B50121B3
:1001D000082001F003FA4FF4E040ADF800001020D1
:1001E0008DF8030003208DF802006946244800F0D2
:1001F00039FF4FF48071224800F0E3FF08BD00F0A2
:10020000BAFB02F081FB02F0BBFF02F065FF03F0D6
:1002100077FB002003F078FB1A490870012003F0F7
:1002200073FB19490870022003F06EFB1749087030
:10023000032003F069FB16490870042003F064FBF7
:1002400014490870052003F05FFB1349087006206D
:1002500003F05AFB11490870FFF7B8FF4FF48071A3
:100260000F4800F0AEFF4FF4165002F0C6FB02F04C
:10027000D5FC02F0F1FC02F04FFD00BFFEE70000EC
:10028000000C01401B0000201C0000201900002071
:100290001A00002010000020110000202200002081
:1002A000000801402DE9F04104460D4616461F4660
:1002B00032463B462046294603F0C4FF03D220467F
:1002C0002946BDE8F08130463946FAE72DE9F0418C
:1002D00004460D4616461F4632463B4620462946F2
:1002E00003F0B0FF03D230463946BDE8F081204626
:1002F0002946FAE72DE9F04F93B00022FD4BFE4965
:1003000003C903F0A3FC804689460022F94BFB4950
:1003100003C903F09BFC82468B460022F54BF8494B
:1003200003C903F093FCCDE9100150465946DDE9BD
:100330001023FFF7CBFF02460B46CDE906014046EE
:100340004946FFF7C3FFCDE90E0150465946DDE9A6
:100350001023FFF7A7FF02460B46CDE906014046F2
:100360004946FFF79FFF04460D4620462946DDE932
:100370000E2303F0A9FF06460F4620462946DDE975
:100380000E2303F0AFFB00224FF08043CDE90601BE
:1003900003F05CFCDB4A03C20022134630463946B8
:1003A00003F0ACFD07D10021D74A11605160D74A54
:1003B00011605160F0E00022D54BD24903C903F02F
:1003C00007FE10D220462946DDE90E2303F08AFB02
:1003D00002460B46CDE906013046394603F036FCAD
:1003E000CA4A03C216E022462B4600204FF0804145
:1003F00003F06AFFCDE90401DDE90E2303F064FF99
:1004000002460B46CDE906013046394603F01EFC94
:10041000BE4A03C200224FF080433046394603F003
:1004200015FC42464B46CDE904012046294603F01F
:100430004BFF0022B74BCDE9000103F007FCCDE9EB
:100440000201DDE9042303F04DFB32463B46CDE9D2
:10045000060103F0FBFBCDE90C0100224FF08043C5
:100460003046394603F0F2FB52465B46CDE90401C3
:100470002046294603F028FF0022A64BCDE90001C3
:1004800003F0E4FBCDE90201DDE9042303F02AFBDC
:1004900032463B46CDE9060103F0D8FBCDE90A011F
:1004A00000224FF080433046394603F0CFFBCDE9C0
:1004B000040120462946DDE9102303F005FF002250
:1004C000944BCDE9000103F0C1FBCDE90201DDE968
:1004D000042303F007FB32463B46CDE9060103F057
:1004E000B5FBCDE9080122462B464046494603F0BC
:1004F00005FD06D108A80FC803F0E6FE824A03C234
:100500002CE022462B465046594603F0F7FC0FD10B
:100510004FF055308049DDE90C2303F0E3FACDE9D3
:100520000601DDE9082303F0CFFE774A03C215E098
:1005300022462B46DDE9100103F0E0FC0ED14FF01E
:1005400055307649DDE90A2303F0CCFACDE90601FE
:10055000DDE90C2303F0B8FE6B4A03C20022134608
:10056000694903C903F034FD07D200226C4B664988
:1005700003C903F0B7FA644A03C20022684B624918
:1005800003C903F05FFE07D20022654B5E4903C931
:1005900003F09AFE5C4A03C213B0BDE8F08F2DE968
:1005A000F04F87B006460F4690469946DDE9104564
:1005B000002213462046294603F00AFD07D20022F6
:1005C000574B2046294603F08DFA04460D4600227B
:1005D000534B2046294603F035FE07D20022504BEC
:1005E0002046294603F070FE04460D4622462B465F
:1005F0000020484903F028FD82460022484B03F0C2
:10060000E7FC19D242464B463046394603F050FECD
:10061000824600223F4B03F017FD22462B46CDE9D0
:10062000020103F011FD32463B46CDE9040103F01F
:1006300059FA07B0BDE8F08F22462B4600204FF054
:10064000804103F001FD82460022354B03F0C0FCDF
:1006500002D240464946ECE722462B46002031496B
:1006600003F0F2FC824600224FF0804303F0B0FC1E
:1006700021D222462B464FF05530284903F024FE64
:1006800082468B4642464B463046394603F010FEC2
:1006900052465B46CDE9000103F0D6FC00221D4B1B
:1006A000CDE9020103F0D0FC32463B46CDE904011E
:1006B00003F018FABDE730463946BAE72DE9F04FA6
:1006C0008FB08046894692469B46DDE91845002258
:1006D00013465046594603F011FC33D10022054B16
:1006E0002046294603F0B0FCCDE90C010022014B65
:1006F000204619E000E06F4040000020500000203C
:100700004800002038000020280000203000002091
:100710000000E03F000018405555D53F5555E53FD6
:100720000000F03F00000840294603F08DFCCDE9B1
:100730000A0100224A4B2046294603F085FCCDE9F8
:1007400008017CE00022474B2046294603F040FC8C
:100750000ED252465B460020434903F0C3F92246BD
:100760002B46CDE9040103F06FFC06460F4615E069
:1007700022462B465046594603F066FC52465B46DD
:10078000CDE904012046294603F0ACF9CDE9020188
:10079000DDE9042303F098FD06460F4622462B466A
:1007A00000204FF0804103F04FFC32463B46CDE93C
:1007B000040103F089FDCDE906014FF055322B4BC2
:1007C0004046494603F08EF9CDE9020132463B46E8
:1007D000CDE90001DDE90601FFF7E1FE0022204B33
:1007E000CDE9040103F030FCCDE90C0132463B4673
:1007F000CDE90089DDE90601FFF7D1FE0022184BA3
:10080000CDE9040103F020FCCDE90A014FF0553297
:10081000164B4046494603F057FDCDE902013246EA
:100820003B46CDE90001DDE90601FFF7B8FE0022F5
:100830000B4BCDE9040103F007FCCDE908010C4A9C
:10084000DDE90C10C2E900100A4ADDE90810C2E92E
:100850000010094ADDE90A0103C20FB0BDE8F08FBC
:1008600000E06F400000E03F0000F03F5555D53FED
:10087000400000204800002050000020704700BFCA
:10088000FEE700BFFEE700BFFEE700BFFEE77047E0
:1008900070477047704700000CB500200190009031
:1008A0006C48006840F480306A49086000BF6948BD
:1008B000006800F4003000900198401C01900098FE
:1008C00018B90198B0F5A06FF1D16248006800F442
:1008D000003010B10120009001E00020009000984D
:1008E000012843D15C48006840F010005A49086074
:1008F0000846006820F0030008600846006840F0E1
:100900000200086053484068524948600846406801
:1009100048600846406840F4806048600846406887
:1009200020F47C1048600846406840F4E8104860B5
:100930000846006840F08070086000BF45480068C5
:1009400000F000700028F9D04248406820F0030011
:10095000404948600846406840F00200486000BFD7
:100960003C48406800F00C000828F9D10CBD10B5D7
:10097000FFF792FF10BD10B53648006840F0010047
:1009800034490860084640683449084031494860A5
:1009900008460068324908402E4908600846006849
:1009A00020F4802008600846406820F4FE0048607B
:1009B0004FF41F008860FFF7DAFF4FF0006029490D
:1009C000086010BD10B5002100200022214B5B689B
:1009D00003F00C0121B1042906D0082928D107E031
:1009E000214B224C236027E01F4B204C236023E047
:1009F000184B5B6803F47010164B5B6803F480328D
:100A0000022303EB904022B9194B4343174C236058
:100A10000DE0104B5B6803F4003323B1144B4343E8
:100A2000124C236003E0104B4343104C236003E05F
:100A30000D4B0E4C236000BF00BF064B5B68C3F339
:100A400003130C4CE15C094B1B68CB40074C236043
:100A500010BD000000100240002002400000FFF81E
:100A6000FFFFF6FE08ED00E000127A0058000020BB
:100A700000093D005C00002031490143314A11600A
:100A8000704770B5002100230F22C47804B32D4CA9
:100A9000246804F4E064C4F5E064210AC1F10403AD
:100AA000CA40447804FA03F18478144021430901D0
:100AB000254C0678A155047804F01F050124AC40AC
:100AC00005786D11AD0005F1E025C5F8004109E09C
:100AD000047804F01F050124AC401C4D0678761103
:100AE00045F8264070BD1A4A0A400243154B1B1FA9
:100AF0001A60704739B1134A121D12680243114B34
:100B00001B1D1A6006E00F4A121D126882430D4B2E
:100B10001B1D1A607047042808D14FF0E0210969B5
:100B200041F004014FF0E022116107E04FF0E021B5
:100B3000096921F004014FF0E022116170470000C3
:100B40000000FA050CED00E000E400E080E100E0C8
:100B500080FFFF1F10B50446FA48844208D10121E6
:100B6000401500F055FD0021601500F051FD17E023
:100B7000F548844208D10121001500F049FD00210B
:100B8000201500F045FD0BE0F048844208D101211A
:100B9000C80300F03DFD00214FF4004000F038FD97
:100BA00010BD30B50246002000235068E84C2040BC
:100BB0000D790C6844EA0524204350609068E54CA8
:100BC0002040D1E902542C434D7944EA45042043A6
:100BD0009060D06A20F470000C7C641EE4B2234361
:100BE00040EA0350D06230BD0021016001714171C3
:100BF0008160C16001210174704721B1826842F0B7
:100C00000102826003E0826822F001028260704784
:100C100021B1826842F48072826003E0826822F42B
:100C200080728260704710B50023CBB21AB144685D
:100C30001C43446002E044689C43446010BD8168EA
:100C400041F0080181607047014600208A6802F087
:100C500008020AB1012000E000207047816841F0DD
:100C6000040181607047014600208A6802F0040296
:100C70000AB1012000E00020704721B1826842F4EF
:100C8000A002826003E0826822F4A00282607047C2
:100C9000014600208A6802F480020AB1012000E0C7
:100CA0000020704710B50A4600210023416821F456
:100CB0006041531E41EA4331416010BD21B1426899
:100CC00042F40062426003E0426822F40062426043
:100CD0007047F0B504460D4600200021092D11DDB6
:100CE000E068A5F10A0606EB4607072606FA07F1B3
:100CF0008843A5F10A0606EB460603FA06F1084307
:100D0000E0600CE0206905EB4507072606FA07F1CD
:100D1000884305EB450603FA06F108432061072ADC
:100D20000FDA606B561E06EB86071F2606FA07F1E0
:100D30008843561E06EB860605FA06F108436063F3
:100D400022E00D2A0FDA206BD61F06EB86071F263E
:100D500006FA07F18843D61F06EB860605FA06F168
:100D60000843206310E0E06AA2F10D0606EB860757
:100D70001F2606FA07F18843A2F10D0606EB860648
:100D800005FA06F10843E062F0BD21B1826842F441
:100D90008012826003E0826822F4801282607047D1
:100DA0000146C86C80B2704766484C300068704796
:100DB00021B1426842F48062426003E0426822F45A
:100DC00080624260704721B1426842F480524260C2
:100DD00003E0426822F48052426070470A460021D4
:100DE000816821F4E04111438160704721B182683C
:100DF00042F40042826003E0826822F40042826092
:100E0000704721B1826842F40212826003E0826876
:100E100022F4021282607047014600208A6802F4C0
:100E200000120AB1012000E000207047F0B504462E
:100E30001546002000220026092911DDE068A1F1F5
:100E40000A0707EB470C072707FA0CF29043A1F1BA
:100E50000A0707EB470703FA07F21043E0600CE0CC
:100E6000206901EB410C072707FA0CF2904301EBD4
:100E7000410703FA07F210432061A06BC0F301564B
:100E8000EF1C06F1010CA7EB0C0707EB870C1F27E3
:100E900007FA0CF29043EF1C06F1010CA7EB0C07CC
:100EA00007EB870701FA07F21043A063F0BD10B506
:100EB0000A4600210023816B21F44011531E41EAB0
:100EC0000351816310BD08B5002300930090009B7F
:100ED0000B440093009B1A6008BD08B50246002031
:100EE0000090009201F12800009B184400900098A7
:100EF000006880B208BD0A4600214168164B1940BF
:100F00001143416070474162826270470A46002186
:100F1000416821F01F0111434160704740B1094908
:100F20000831096841F40001064A0832116007E0FF
:100F300004490831096821F40001024A08321160AD
:100F4000704700000024014000280140003C01409F
:100F5000FFFEF0FFFDF7F1FFFFFD3FFF024600201F
:100F600013680B400BB1012000E000207047CA431A
:100F70000260704770B502460020002300240B1267
:100F80005568CEB205EA060415681D4015B10CB1CE
:100F9000012000E0002070BD00220A12D34303604C
:100FA0007047000010B50446CC48844208D10121A6
:100FB000042000F02DFB0021042000F029FB46E076
:100FC000C748844208D10121082000F021FB0021FC
:100FD000082000F01DFB3AE0C248844208D10121FC
:100FE000102000F015FB0021102000F011FB2EE076
:100FF000BD48844208D10121202000F009FB0021D6
:10100000202000F005FB22E0B848844208D10121ED
:10101000402000F0FDFA0021402000F0F9FA16E02F
:10102000B348844208D10121802000F0F1FA002168
:10103000802000F0EDFA0AE0AE48844207D1012199
:10104000801500F0E5FA0021A01500F0E1FA10BDCE
:1010500010B50121084600F0DBFA0021012000F064
:10106000D7FA10BD2DE9F0410246002500260020E8
:1010700000230024002791F803C00CF00F0591F81D
:1010800003C00CF0100CBCF1000F03D091F802C0AB
:101090004CEA050591F800C0BCF1000F31D014688E
:1010A00000202BE04FF0010C0CFA00F3B1F800C067
:1010B0000CEA03069E4220D183004FF00F0C0CFA7D
:1010C00003F7BC4305FA03FC4CEA040491F803C09F
:1010D000BCF1280F06D14FF0010C0CFA00FCC2F84D
:1010E00014C00AE091F803C0BCF1480F05D14FF0DD
:1010F000010C0CFA00FCC2F810C0401C0828D1D327
:101100001460B1F800C0BCF1FF0F34DD546800205A
:101110002EE000F1080C4FF0010808FA0CF3B1F8CA
:1011200000C00CEA03069E4221D183004FF00F0C51
:101130000CFA03F7BC4305FA03FC4CEA040491F8EB
:1011400003C0BCF1280F05D100F1080C08FA0CF817
:10115000C2F8148091F803C0BCF1480F07D100F128
:10116000080C4FF0010808FA0CF8C2F81080401C77
:101170000828CED35460BDE8F0814FF6FF7101809E
:10118000022181700421C1707047024600209368DB
:101190000B400BB1012000E0002070470146886839
:1011A00080B2704702460020D3680B400BB101208B
:1011B00000E0002070470146C86880B270470161B6
:1011C0007047416170470AB1016100E041617047B9
:1011D000C16070474FF480320A438261816182614D
:1011E00082698269704702460020434B18684FF6B7
:1011F0008073184040EA021008433F4B1860704764
:101200003E49C8617047F0B50A460023002400211A
:10121000002500F00046B6F1004F02D1364EF169CC
:1012200001E0354E7168C0F3034583B200F4401607
:10123000B6F5401F08D121F070612F4E766826F078
:1012400070662D4F7E6012E000F48016B6F5801FA8
:1012500006D1032606FA05F4A14341F0706106E0C9
:10126000460D360103FA06F6B14341F0706122B132
:10127000460D360103FA06F6314300F00046B6F19A
:10128000004F02D11C4EF16101E01B4E7160F0BDB8
:1012900030B500228B071C0F0F2303FA04F2164B04
:1012A00008338C1053F824309343134C08348D10BA
:1012B00044F8253023468C1053F824308C07240F33
:1012C00000FA04F423430C4C08348D1044F8253004
:1012D00030BD0A49DC310860704700000008014059
:1012E000000C0140001001400014014000180140B2
:1012F000001C01400020014000000140000020428D
:10130000DF48006840F00100DD4908600846406899
:10131000DC490840DA49486008460068DA49084074
:10132000D74908600846006820F480200860084615
:10133000406820F4FE0048604FF41F00886070474A
:10134000CF49096821F48031CD4A116011460968FE
:1013500021F480211160B0F5803F03D0B0F5802FDB
:101360000ED106E0C649096841F48031C44A1160D3
:1013700007E0C349096841F4A021C14A116000E0B7
:1013800000BF00BF704710B50146002200230020B7
:101390004A11012A02D1BA4C236806E0022A02D17E
:1013A000B74C236A01E0B64C636A01F01F020124C6
:1013B00094401C400CB1012000E0002010BD38B565
:1013C000002000900024002500BF3120FFF7DBFF44
:1013D00005460098401C00900098B0F5A06F01D021
:1013E000002DF2D03120FFF7CEFF08B1012400E03C
:1013F0000024204638BD01460020A14A106820F094
:10140000F80040EAC10010607047A04908607047CA
:10141000024600209A4B586820F47C1042EA0103EF
:101420001843974B586070479849086670470146C3
:101430000020934A506820F0030008435060704732
:101440008F48406800F00C007047014600208C4A2D
:10145000506820F0F00008435060704701460020BB
:10146000874A506820F4E0600843506070470146A6
:101470000020834A506820F4605040EAC100506068
:10148000704729B17E4A527A02437D4B5A7204E07A
:101490007B4A527A82437A4B5A7270477B49D831E1
:1014A0000860704701460020754A506820F44040AB
:1014B0000843506070470021714A20321170704A11
:1014C00082F82010012802D004280AD104E001216A
:1014D0006B4A2032117005E00521694A20321170F3
:1014E00000E000BF00BF7047694908607047644969
:1014F000096A0143624A11627047654944390860CC
:10150000704730B500210022002400235C4D6D6837
:1015100005F00C0121B1042905D0082923D105E0EB
:101520005C4D056022E05B4D05601FE0544D6D6829
:1015300005F47012524D6D6805F48034022505EBF8
:1015400092421CB9544D554305600BE04C4D6D68FB
:1015500005F400351DB1504D5543056002E04D4D79
:101560005543056002E04B4D056000BF00BF444D90
:101570006D6805F0F0010909484D6B5C0568DD40B8
:1015800045603F4D6D6805F4E061090A434D6B5CB1
:101590004568DD4085603A4D6D6805F46051C90AC3
:1015A0003E4D6B5C4568DD40C560354D6D6805F4AA
:1015B0004041890B3A4D6B5CC568B5FBF3F505619D
:1015C00030BD29B12E4A526902432D4B5A6104E0C5
:1015D0002B4A526982432A4B5A61704729B1284AE3
:1015E00092690243264B9A6104E0254A926982433C
:1015F000234B9A61704729B1214AD2690243204B9B
:10160000DA6104E01E4AD26982431D4BDA617047F9
:1016100029B11B4AD2680243194BDA6004E0184A28
:10162000D2688243164BDA60704729B1144A1269B6
:101630000243134B1A6104E0114A12698243104BB2
:101640001A61704712494039086070470F49C864F1
:1016500070470B49C87170470948406A40F0807074
:1016600007494862704701460020054A92680A40CF
:101670000AB1012000E000207047014988727047DC
:10168000001002400000FFF8FFFFF6FE000042429B
:101690008004424200127A0000093D006C000020E4
:1016A0007C00002010B50446FE48844208D1012188
:1016B000C014FFF7ADFF0021E014FFF7A9FFC4E05D
:1016C000B4F1804F08D101210846FFF7AEFF002199
:1016D0000120FFF7AAFFB8E0F348844208D10121B6
:1016E0000220FFF7A2FF00210220FFF79EFFACE0DF
:1016F000EE48844208D101210420FFF796FF002123
:101700000420FFF792FFA0E0E948844208D10121BC
:101710000820FFF78AFF00210820FFF786FF94E0EA
:10172000E448844208D101211020FFF77EFF002108
:101730001020FFF77AFF88E0DF48844208D10121BA
:101740002020FFF772FF00212020FFF76EFF7CE0D2
:10175000DA48844208D101214014FFF759FF0021E3
:101760006014FFF755FF70E0D548844209D101218C
:10177000C804FFF74DFF00214FF40020FFF748FF9A
:1017800063E0D048844209D101210805FFF740FFFA
:1017900000214FF48010FFF73BFF56E0CA48844217
:1017A00009D101214805FFF733FF00214FF4001054
:1017B000FFF72EFF49E0C548844208D101214020AF
:1017C000FFF733FF00214020FFF72FFF3DE0C04827
:1017D000844208D101218020FFF727FF00218020CB
:1017E000FFF723FF31E0BB48844208D10121801577
:1017F000FFF71BFF0021A015FFF717FF25E0B648F4
:10180000844209D101210804FFF702FF00214FF4AF
:101810008030FFF7FDFE18E0B048844209D1012175
:101820004804FFF7F5FE00214FF40030FFF7F0FE0B
:101830000BE0AB48844208D101218804FFF7E8FEA1
:1018400000214FF48020FFF7E3FE10BD0022028844
:10185000944B98420ED0994B98420BD0B0F1804FE8
:1018600008D0914B984205D0904B984202D0904BB3
:10187000984204D14FF68F731A404B881A438D4B10
:10188000984207D08C4B984204D04FF6FF431A4041
:10189000CB881A4302808B8883850B880385814B14
:1018A00098420BD0854B984208D08B4B984205D07C
:1018B0008A4B984202D08A4B984201D10B7A038618
:1018C00001238382704770B5002400220023058C19
:1018D0004FF6FE7635400584028C8388048B4FF6E4
:1018E0008F752C40B51E2C400D882C43751E2A4048
:1018F0000D892A434D882A436A4DA8420BD06F4D6B
:10190000A84208D0744DA84205D0744DA84202D018
:10191000734DA84213D14FF6F7752A404D892A43DB
:101920004FF6FB752A408D882A434FF6FF652B4002
:101930004FF6FF552B408D892B43CD892B43838058
:101940000483CD888586028470BD70B50024002292
:101950000023058C4FF6EF7635400584028C838892
:10196000048B48F6FF752C404FF6FF452C400D8840
:101970004FF6FF7606EA05252C434FF6DF752A4021
:101980000D8906EA05152A434D8806EA05152A43FE
:10199000444DA84202D0494DA8421DD14FF67F7553
:1019A0002A404D894FF6FF7606EA05152A434FF681
:1019B000BF752A408D8806EA05152A434FF6FF3584
:1019C0002B404FF2FF752B408D8906EA85052B438E
:1019D000CD8906EA85052B4383800483CD8805875E
:1019E000028470BD70B5002400220023058C4FF6E0
:1019F000FF6635400584028C8388848B4FF68F7593
:101A00002C404FF6FC752C400D882C434FF6FF55AB
:101A10002A400D894FF6FF7606EA05252A434D88B0
:101A200006EA05252A431F4DA84202D0234DA842AD
:101A30001DD14FF2FF752A404D894FF6FF7606EA19
:101A400005252A434FF6FF352A408D8806EA0525ED
:101A50002A434EF6FF752B404DF6FF752B408D89BE
:101A600006EA05152B43CD8906EA05152B4383802D
:101A70008483CD888587028470BD70B500220023E1
:101A80000024058C4EF6FF7635400584038C84884F
:101A9000828B48F6FF752A404FF6FF452A400D8895
:101AA00020E00000002C014000040040000800403D
:101AB000000C0040001000400014004000340140C1
:101AC000004C01400050014000540140001800400B
:101AD000001C004000200040004001400044014044
:101AE000004801404FF6FF7606EA05252A434DF6E9
:101AF000FF752B400D8906EA05352B434D8806EA14
:101B000005352B43FA4DA84202D0FA4DA84208D120
:101B10004BF6FF752C408D894FF6FF7606EA85154A
:101B20002C4384808283CD88A0F84050038470BD0C
:101B3000828B4FF2FF331A408283828B4FF6FF7302
:101B400003EA01231A4382837047F0B50C46154619
:101B5000002200210026078C4EF6FF7C07EA0C07C6
:101B60000784828B018C4FF6FF7707EA043640F634
:101B7000FF473A404FF6FF7707EA05273A434FF60B
:101B8000FF7707EA03373A43D94FB8420ED0D94F0F
:101B9000B8420BD0B0F1804F08D0D74FB84205D033
:101BA000D64FB84202D0D64FB84206D14DF6FF7795
:101BB000394046F48057394305E047F6FF5739402E
:101BC00044F48057394382830184F0BD828B4FF601
:101BD000F3731A408283828B0A4382837047F0B585
:101BE0000C461546002200210026078C4FF6FF6C9C
:101BF00007EA0C070784828B018C4FF6FF7707EA10
:101C000004264FF60C773A404FF6FF7707EA0317A2
:101C10002F433A43B64FB8420ED0B64FB8420BD01E
:101C2000B0F1804F08D0B44FB84205D0B34FB8429E
:101C300002D0B34FB84206D14FF6FF57394046F4B1
:101C40008077394305E04FF2FF57394044F48077FD
:101C5000394382830184F0BD028B4FF2FF331A4077
:101C60000283028B4FF6FF7303EA01231A430283B8
:101C70007047F0B50C461546002200210026078C5F
:101C80004FF6EF7C07EA0C070784028B018C4FF6B6
:101C9000FF7707EA041640F6FF473A404FF6FF7712
:101CA00007EA03373A434FF6FF7707EA05273A4337
:101CB0008F4FB8420ED08F4FB8420BD0B0F1804F4B
:101CC00008D08D4FB84205D08C4FB84202D08C4F0F
:101CD000B84206D14FF6DF77394046F01007394356
:101CE00005E04FF65F77394044F01007394302832F
:101CF0000184F0BD028B4FF6F3731A400283028B0E
:101D00000A4302837047F0B50C46154600220021B5
:101D1000068C4FF6FE773E400684028B018C4FF610
:101D20000C7632407E1C06EA03162E433243704E78
:101D3000B0420ED06F4EB0420BD0B0F1804F08D001
:101D40006D4EB04205D06D4EB04202D06C4EB042E6
:101D500006D14FF6FD76314044F00106314305E0EF
:101D60004FF6F576314044F0010631430283018499
:101D7000F0BD70B505460C465D4885420ED05D4805
:101D800085420BD0B5F1804F08D05B48854205D025
:101D90005A48854202D05A48854200D100E000BF2F
:101DA000208850B92389A28861882846FFF7ABFFB5
:101DB000E1882846FFF79EFF25E0208804280AD105
:101DC0002389A28861882846FFF753FFE1882846C7
:101DD000FFF742FF17E0208808280AD12389A2884C
:101DE00061882846FFF7FBFEE1882846FFF7EEFEF4
:101DF00009E02389A28861882846FFF7A6FEE188CA
:101E00002846FFF795FE70BD2DE9F04105460C46CA
:101E100000260127608808B9022600E00026A08875
:101E2000012801D1022700E001272088A0B92389D9
:101E3000A28861882846FFF766FFE1882846FFF7F9
:101E400059FF23893A4631462846FFF712FFE188B9
:101E50002846FFF701FF13E02389A28861882846FE
:101E6000FFF707FFE1882846FFF7F6FE23893A4689
:101E700031462846FFF747FFE1882846FFF73AFF3B
:101E8000BDE8F0810A884B881A438B881A43CB88B7
:101E90001A430B891A434B891A438B891A43A0F8BA
:101EA000442070474FF6FF71818000210180C1807E
:101EB0004180017270470021018041808180C18092
:101EC000018141818181C181704700210180418070
:101ED000012181800021C1800181704700210180A2
:101EE00041808180C18001814181818170470000F2
:101EF000002C014000340140000400400008004074
:101F0000000C004021B1028842F00102028004E08E
:101F100002884FF6FE731A400280704731B1B0F864
:101F2000442042F40042A0F8442005E0B0F84420E8
:101F3000C2F30E02A0F8442070471AB183890B4304
:101F4000838102E083898B4383817047818270475C
:101F500041EA0203A0F8483070471AB183890B4365
:101F6000838102E083898B438381704701894FF627
:101F7000F8721140018170470A46002101894FF62D
:101F80008F73194011430181704730B504460D46E7
:101F900029462046FFF7F0FF208940F00700208106
:101FA00030BD2DE9F04104460D4616461F46602D12
:101FB00006D13B46012231462046FFF75AFE05E096
:101FC0003B46012231462046FFF79DFE294620462A
:101FD000FFF7D2FF208940F007002081BDE8F081A3
:101FE00030B50C4600210189C9B24FF6FF7505EAEC
:101FF0000325154325432943018130BD2DE9F041D7
:1020000005460E4617469846002443463A46314652
:102010002846FFF7E5FF2C894FF6F870044044F09E
:1020200007044FF68F70044044F070042C81BDE823
:10203000F081F0B504460D4616461F463B46324633
:1020400029462046FFF7CCFF208940F480402081BC
:10205000F0BD0185828270470A46002101884FF653
:102060008F731940114301807047F0B50C46154637
:102070001E460021002200230189028B038C4FF6AB
:10208000F877394021434FF6FC473A4040F20117B8
:102090003A434FF6DD773B404FF6FF7707EA0617E6
:1020A0002F433B43018102830384F0BD0A46002194
:1020B000018B4FF68F7319401143018370470A4615
:1020C0000021018B48F6FF7319404FF6FF7303EAB6
:1020D00002231943018370470A460021818B4FF682
:1020E0008F7319401143818370470A460021818B09
:1020F00048F6FF7319404FF6FF7303EA02231943B2
:102100008183704721B1028842F08002028004E09E
:1021100002884FF67F731A400280704721B182888F
:1021200042F00402828004E082884FF6FB731A407A
:102130008280704721B1828842F00802828004E0E8
:1021400082884FF6F7731A408280704721B18288E7
:1021500042F00102828004E082884FF6FE731A404A
:10216000828070470A460021018B4FF6F7731940B1
:102170001143018370470A460021018B4FF2FF7320
:1021800019404FF6FF7303EA022319430183704796
:102190000A460021818B4FF6F77319401143818362
:1021A00070470A460021818B4FF2FF7319404FF6AA
:1021B000FF7303EA02231943818370470A46002113
:1021C000018B4FF6FB7319401143018370470A4698
:1021D0000021018B4FF6FF3319404FF6FF7303EADE
:1021E00002231943018370470A460021818B4FF671
:1021F000FB7319401143818370470A460021818B8C
:102200004FF6FF3319404FF6FF7303EA02231943D9
:10221000818370470A460021018B4FF67F73194076
:102220001143018370470A460021018BC1F30E015F
:102230004FF6FF7303EA02231943018370470A46EE
:102240000021818B4FF67F731940114381837047C2
:102250000A460021818BC1F30E014FF6FF7303EA9A
:1022600002231943818370470A460021018C4FF6EF
:10227000FD7319401143018470470A460021018C07
:102280004FF6F77319401143018470470A46002145
:10229000018C4FF6DF7319404FF6FF7303EA021308
:1022A0001943018470470A460021018C4FF67F7361
:1022B00019404FF6FF7303EA021319430184704774
:1022C0000A460021018C4FF6FF5319404FF6FF7369
:1022D00003EA02231943018470470A460021018C56
:1022E0004FF2FF7319404FF6FF7303EA02231943BD
:1022F000018470470A460021018C4DF6FF73194096
:102300004FF6FF7303EA023319430184704730B577
:10231000002301248C40A3B2048C9C430484048CCD
:1023200002FA01F5ADB22C43048430BD30B5002370
:1023300004248C40A3B2048C9C430484048C02FAD1
:1023400001F5ADB22C43048430BD70B503460020C6
:1023500000241846183001258D40ACB21D8CA543D1
:102360001D8409B1082909D100EB6100056825F039
:10237000700505600568154305600EE00D1FC5F387
:102380004E052844056825F4E045056005684FF6CC
:10239000FF7606EA02263543056070BD21B102884A
:1023A00042F00202028004E002884FF6FD731A40F8
:1023B0000280704721B1028842F00402028004E0EA
:1023C00002884FF6FB731A400280704721B1828861
:1023D00042F08002828004E082884FF67F731A40C8
:1023E0008280704702884FF6F7731A400280028895
:1023F0000A430280704782884FF68F731A408280AA
:1024000082880A438280704702894FF6F8731A4027
:10241000028102890A430281704702894FF67F7365
:102420001A40028102890A43028170478184704701
:102430008185704781867047018770478187704723
:10244000A0F84010704702884FF6FF431A40028000
:1024500002880A43028070470146888E7047014611
:10246000088F70470146888F70470146B1F84000D9
:1024700070470146888C70470146088D70470246B8
:102480000020138A0B400BB1012000E000207047B0
:10249000CA430282704730B5024600200023002460
:1024A000158A05EA0103958905EA010413B10CB107
:1024B000012000E0002030BDCA43028270470000C6
:1024C00010B50446FB48844209D101218803FFF777
:1024D0009FF800214FF48040FFF79AF832E0F64869
:1024E000844209D101214804FFF79FF800214FF4ED
:1024F0000030FFF79AF825E0F048844209D1012125
:102500008804FFF792F800214FF48020FFF78DF840
:1025100018E0EB48844209D10121C804FFF785F88F
:1025200000214FF40020FFF780F80BE0E5488442DB
:1025300008D101210805FFF778F800214FF4801039
:10254000FFF773F810BD2DE9F04786B005460E463B
:102550000024A24600BFA1460027B08900B100BFF9
:102560002F462C8A4CF6FF700440F08804432C82DE
:10257000AC894EF6F3100440B08831890843718964
:1025800008430443AC81AC8A4FF6FF400440B08955
:102590000443AC8201A8FEF7B4FFC648874202D1CB
:1025A000DDF810A001E0DDF80CA0A88900F40040DF
:1025B00040B10AEBCA0000EB0A1031684900B0FBD9
:1025C000F1F807E00AEBCA0000EB0A103168890055
:1025D000B0FBF1F86420B8FBF0F00401200964219D
:1025E00001FB1089A88900F4004040B1322000EBC3
:1025F000C900B0FBF1F000F00700044308E032200E
:1026000000EB09106421B0FBF1F000F00F0004436F
:102610002C8106B0BDE8F0874FF41651016000210F
:102620008180C18001810C2141810021818170471D
:1026300010B502460020108A4FF2FF0318400B88A5
:102640004C8823438C882343CC882343184310822F
:1026500010BD0021018041808180C180704721B17F
:10266000828942F40052828104E082894DF6FF7330
:102670001A4082817047F0B50346002400260025E9
:10268000002040F66A17B94200D100BF1846C1F3D6
:10269000421401F01F06012707FA06F5012C01D1AB
:1026A0000C3004E0022C01D1103000E014301AB1DB
:1026B00007682F43076002E00768AF430760F0BD7B
:1026C0001AB1838A0B43838202E0838A8B4383821D
:1026D0007047028A4FF6F0731A400282028A0A4358
:1026E0000282704782894FF2FF731A408281828989
:1026F0000A438281704721B1828942F002028281BD
:1027000004E082894FF6FD731A4082817047028A85
:102710004FF6DF731A400282028A0A430282704730
:1027200021B1028A42F48042028204E0028A4BF61E
:10273000FF731A4002827047C1F30802828070471B
:1027400001468888C0F308007047818941F0010183
:1027500081817047028BD2B20283028B42EA01224E
:1027600002837047028B02F47F420283028B0A438A
:102770000283704721B1828A42F02002828204E003
:10278000828A4FF6DF731A408282704721B1828AB3
:1027900042F01002828204E0828A4FF6EF731A4000
:1027A0008282704721B1828A42F00802828204E06C
:1027B000828A4FF6F7731A408282704721B182896C
:1027C00042F40042828103E08289C2F30E028281D8
:1027D000704721B1828A42F40062828204E0828AD8
:1027E0004FF2FF731A4082827047828A4FF6FB7362
:1027F0001A408282828A0A438282704721B1828A89
:1028000042F00202828204E0828A4FF6FD731A408F
:102810008282704702460020B1F5007F00D100BFE0
:1028200013880B400BB1012000E00020704701F439
:102830000072B2F5007F00D100BFCA43028070472A
:1028400070B50246002400230025002040F66A16D9
:10285000B14200D100BFC1F3421501F01F030126B0
:1028600006FA03F3012D02D19689334006E0022DCA
:1028700002D1168A334001E0968A33400C120126B9
:1028800006FA04F41688344013B10CB1012000E0BC
:10289000002070BD10B50022002340F66A14A1424A
:1028A00000D100BF0A1201249440A3B2DC4304808B
:1028B00010BD0000003801400044004000480040C6
:1028C000004C00400050004009488047094800473C
:1028D000FEE7FEE7FEE7FEE7FEE7FEE7FEE7FEE7D0
:1028E000FEE7FEE704480549054A064B704700002D
:1028F0007709000831010008F8000020F8060020E0
:10290000F8020020F802002010B56FF00400FEF776
:1029100002F92E4800682E49B0FBF1F02D490870ED
:102920000846007800EB4001C1EBC0104FF6FF7184
:1029300001EAC0002849088010BD0146254A1278E6
:102940004A434FF0E0235A6100229A611A46126905
:1029500042F001021A6100BF4FF0E022106900F05E
:1029600001021AB100F48032002AF5D04FF0E022C3
:10297000126922F001024FF0E0231A6100229A61ED
:1029800070470146144A12884A434FF0E0235A61C7
:1029900000229A611A46126942F001021A6100BFD0
:1029A0004FF0E022106900F001021AB100F4803209
:1029B000002AF5D04FF0E022126922F001024FF018
:1029C000E0231A6100229A6170470000580000203D
:1029D00000127A008000002082000020014600BF23
:1029E000704700BF7A4A128802F04002002AF9D0EC
:1029F000C2B2774B1B1D1A80704710B586B00446D3
:102A0000012144F20400FEF7E9FD4FF40070ADF837
:102A1000140003208DF8160018208DF8170005A962
:102A20006C48FEF71FFB4FF48060ADF814000420E3
:102A30008DF8170005A96748FEF714FB25208DF8CF
:102A4000000003208DF801008DF8020001208DF8B0
:102A500003006846FEF715F801940020ADF8080061
:102A6000ADF80A00ADF80C00ADF810000C20ADF880
:102A70000E0001A95648FFF766FD012240F22551DC
:102A80005348FFF7F8FD01215148FFF7E8FD06B074
:102A900010BD10B540F225514D48FFF7D1FE00287A
:102AA00075D04B48FFF74CFEC4B24B4800880D2848
:102AB0002DD2DFE800F0072D353D454B545D636DA9
:102AC000737C85000D2C05D143480088401C424989
:102AD00008801CE0032C03D105203F49088016E044
:102AE000022C03D106203C49088010E0AA2C03D117
:102AF0000720394908800AE0CC2C03D10920364947
:102B0000088004E0042C02D10B20334908805DE0EA
:102B10003248048030480088401C2F49088055E026
:102B20002F4804802C480088401C2B4908804DE029
:102B30002C48048028480088401C2749088045E02C
:102B4000294804800C20244908803FE001202749BF
:102B50000870274804700C201F49088036E00120C7
:102B600024490870244804700C201B4908802DE07B
:102B70002248047008201849088027E001202049D5
:102B80000870204804700C20134908801EE01EE0E5
:102B90001D4804700A201049088017E001201B49D5
:102BA00008701B4804700C200B4908800EE00120BF
:102BB00018490870184804700C200749088005E07F
:102BC0000A2C02D100200449088000BF00BF10BDBC
:102BD00000380140000801408C00002084000020E3
:102BE00086000020880000200E0000201F0000202A
:102BF0001000002020000020110000201B000020F9
:102C00001D0000201C000020190000201E000020D4
:102C10001A000020210000202200002008B5012118
:102C20000220FEF7E8FC01210C20FEF7D7FCC020B3
:102C3000ADF8000018208DF8030003208DF8020085
:102C40006946F748FEF70EFA0320ADF80000694622
:102C5000F448FEF707FA08BD00B587B0FF20ADF8CD
:102C600014000020ADF81000ADF81600ADF8120009
:102C700004A9ED48FEF7EAFD7020ADF80000012040
:102C8000ADF80200E9480088ADF806000020ADF874
:102C900008006946E448FEF716FE0821E248FFF7FF
:102CA00061FA0120ADF80200E1480088ADF80600A5
:102CB0006946DD48FEF749FE0821DB48FFF75BFA6D
:102CC0000120ADF80200DB480088ADF80600694637
:102CD000D548FEF787FE0821D348FFF759FA0120AF
:102CE000ADF80200D4480088ADF806006946CE4829
:102CF000FEF7C3FE0821CC48FFF753FA0121CA486A
:102D0000FFF70CF90121C848FFF7FCF90121C6487B
:102D1000FFF7F8F807B000BD1FB501210846FEF720
:102D20006AFC4FF08040FEF7BDFC4FF08040FFF79B
:102D30001DF94FF4FA60ADF808004720ADF8040023
:102D40000020ADF80A00ADF8060001A94FF0804060
:102D5000FEF77CFD20214806FFF74DFB0121880787
:102D6000FFF796FB012211469007FFF7E6F80121D5
:102D70008807FFF7C7F81C208DF8000000208DF8A9
:102D800001008DF8020001208DF803006846FDF770
:102D900078FE1FBD7CB501218807FFF78DFBA74892
:102DA000FDF7FEFF0646C01706EB90708510E8178A
:102DB00005EB9070841000F0D3FBA148007860B15F
:102DC000A0480178002000F0CBFD9F480178012049
:102DD00000F0C6FD00209A4908709C48007860B158
:102DE0009B480178022000F0BBFD9A48017803203F
:102DF00000F0B6FD0020954908709748007838B17A
:102E000096480178042000F0ABFD0020924908703C
:102E10009348007838B193480178052000F0A0FD70
:102E200000208F4908709048007838B18F480178A9
:102E3000062000F095FD00208B4908708C488078B2
:102E40008049097888420CD1894840787E490978C0
:102E5000884206D1864800783A2802D10120854967
:102E60000880834880787A49097888420CD1804864
:102E7000407878490978884206D17D4800783A2818
:102E800002D100207B4908807A48008830B90020B0
:102E9000794908807949088079490880754800880F
:102EA000012805D101210220FEF7A5FBFFF7D4FE82
:102EB0006A48007801280BD16F490C806F490C805B
:102EC0006F490C8059490C8059490C8059490C8034
:102ED00064480078012808D17D20674908802C20AB
:102EE00066490880C8206649088060480078012843
:102EF0002ED1FDF7FFF9634A634B644903C900F023
:102F0000F1FD624A03C2624803C8CDE9000161488D
:102F10005E490CC803C9FDF7D1FB5F4903C901F045
:102F200029F885B229464048FFF784FA5B4903C96E
:102F300001F020F885B229463B48FFF77DFA584951
:102F400003C901F017F885B229463748FFF776FA2A
:102F50003648008848490988884221D0334800888B
:102F60004549098888420ADD30480088401E2F49BB
:102F70000880084601882C48FFF75CFA7CBD2B4886
:102F800000883D49098888420ADA28480088401CA0
:102F900026490880084601882348FFF74BFAEDE7E9
:102FA0002348008835490988884221D02048008874
:102FB0003249098888420ADD1D480088401E1C49A4
:102FC0000880084601881848FFF736FAD6E71848FF
:102FD00000882A49098888420ADA15480088401C76
:102FE00013490880084601880F48FFF725FAC5E70E
:102FF0001048008822490988884264D00D4800881A
:103000001F49098888424DDD0A480088401E094949
:103010000880084601880448FFF710FAAEE7000070
:1030200000080140000C01400004004006000020A0
:10303000080000200A0000200C00002000240140AD
:103040001D0000201B0000201C0000201E0000208E
:10305000190000201A0000201F000020100000208E
:10306000200000201100002021000020220000206C
:10307000120000200E0000208400002086000020A6
:1030800088000020691D554D1075FF3E2800002066
:1030900038000020300000204000002048000020C0
:1030A00050000020094800880949098888420ADA46
:1030B00006480088401C05490880084601880548E4
:1030C000FFF7BCF95AE700BF58E700000A000020EC
:1030D000880000200004004000B587B001214FF4B3
:1030E0000170FEF77BFA4FF40040FEF7DBF9012098
:1030F000ADF8040000208DF8070001A91E48FDF777
:10310000B1FF01211C48FEF75CF81C48FDF722FDC9
:10311000002002908DF80C008DF80D004FF4002077
:1031200004900020059001208DF8180002A9134892
:10313000FDF737FD01211148FDF727FE0723012286
:1031400000210E48FDF7C5FD01210C48FDF755FD96
:103150000A48FDF774FD00BF0848FDF775FD00281B
:10316000FAD10648FDF77AFD00BF0448FDF77BFD64
:103170000028FAD107B000BD00080140002401403A
:1031800008B501211020FEF729FA4FF4C070ADF800
:10319000000003208DF8020014208DF8030069461A
:1031A0008548FDF75FFF80218348FEF708F84FF45C
:1031B00080718148FEF703F808BD10B54FF48071A7
:1031C0007D48FDF7FCFF80217B48FDF7F8FF0220DA
:1031D000FFF7B3FB4FF480717748FDF7F2FF022051
:1031E000FFF7ABFB4FF480717348FDF7EAFF022055
:1031F000FFF7A3FB10BD10B580216F48FDF7E1FF7D
:103200000220FFF79AFB4FF480716B48FDF7D9FF5E
:1032100080216948FDF7D3FF0220FFF78EFB4FF4B2
:1032200080716548FDF7CBFF0220FFF786FB10BDDC
:1032300010B580216048FDF7C4FF4FF480715E48EF
:10324000FDF7BDFF0220FFF778FB80215A48FDF70C
:10325000B6FF002401E0601C84B24FF48071564830
:10326000FDF793FF18B14EF660208442F3DB142083
:10327000FFF763FB80215048FDF7A3FF0220FFF713
:103280005CFB10BD70B50446002500BF22E0802124
:103290004948FDF796FF0220FFF74FFB04F080003E
:1032A00028B14FF480714448FDF789FF04E04FF4E2
:1032B00080714148FDF785FF0220FFF73EFB80212A
:1032C0003D48FDF77CFF0220FFF737FB6006040E48
:1032D000681CC5B2082DDADB80213748FDF771FF85
:1032E0000220FFF72AFB70BD70B54FF480713248A1
:1032F000FDF765FF00251CE06006040E80212E48C6
:10330000FDF75FFF0220FFF718FB80212A48FDF739
:1033100056FF0220FFF711FB4FF480712648FDF79E
:1033200034FF10B144F0010401E024F00104681CF2
:10333000C5B2082DE0DB204670BD10B580211E48C7
:10334000FDF73FFF0220FFF7F8FA4FF480711A48AB
:10335000FDF737FF0220FFF7F0FA80211648FDF74E
:103360002EFF0220FFF7E9FA80211348FDF729FF1D
:103370000220FFF7E2FA10BD10B580210E48FDF7DC
:1033800020FF0220FFF7D9FA4FF480710A48FDF7B9
:1033900016FF0220FFF7D1FA80210748FDF70FFF43
:1033A0000220FFF7CAFA80210348FDF70AFF022036
:1033B000FFF7C3FA10BD00000010014070B50546CC
:1033C0000C46FFF7FAFEA220FFF75CFFFFF730FF85
:1033D0002846FFF757FFFFF72BFF2046FFF752FF66
:1033E000FFF726FFFFF707FF70BD10B50021012092
:1033F000FFF7E4FF00210E20FFF7E0FF83210D20FF
:10340000FFF7DCFF10BD10B5FFF7BAFEA548007846
:103410000A2190FBF1F201FB1200A24909780A226D
:1034200091FBF2F140EA01109E490870084640788D
:103430000A2190FBF1F201FB12009A4949780A2215
:1034400091FBF2F140EA01109649487008468078F5
:103450000A2190FBF1F201FB1200924989780A22BD
:1034600091FBF2F140EA01108E4988700846C0785D
:103470000A2190FBF1F201FB12008A49C9780A2265
:1034800091FBF2F140EA01108649C8700846407984
:103490000A2190FBF1F201FB1200824949790A22CC
:1034A00091FBF2F140EA01107E49487108468079AB
:1034B0000A2190FBF1F201FB12007A4989790A2274
:1034C00091FBF2F140EA011076498871FFF78DFF18
:1034D00020210020FFF772FF724801780220FFF7D9
:1034E0006DFF704841780320FFF768FF6D488178D1
:1034F0000420FFF763FF6B48C1780520FFF75EFFEC
:10350000684801790620FFF759FF6648417907208E
:10351000FFF754FF634881790820FFF74FFF002130
:103520000846FFF74BFF10BD70B50446FFF745FE98
:10353000A220FFF7A7FEFFF77BFE2046FFF7A2FEC3
:10354000FFF776FEFFF739FEA320FFF79BFEFFF79C
:103550006FFEFFF7C9FE0546FFF74DFE284670BD1A
:1035600010B5FFF72AFEA220FFF78CFEFFF760FEE2
:103570000220FFF787FEFFF75BFEFFF71EFEA3208A
:10358000FFF780FEFFF754FEFFF7AEFE00F07F006E
:1035900044490870FFF7D1FEFFF7A6FE00F07F0058
:1035A00040494870FFF7C9FEFFF79EFE00F03F005C
:1035B0003C498870FFF7C1FEFFF796FE00F03F0020
:1035C0003849C870FFF7B9FEFFF78EFE00F007001C
:1035D00034490871FFF7B1FEFFF786FE00F01F00C7
:1035E00030494871FFF7A9FEFFF77EFE2D4988712B
:1035F000FFF7C2FEFFF7FFFD2A48007800F00F003A
:1036000028490978090901EB810100EB41002549AE
:1036100008700846407800F00F004978090901EB6E
:10362000810100EB41001F4948700846807800F096
:103630000F008978090901EB810100EB410019496C
:1036400088700846C07800F00F00C978090901EBBE
:10365000810100EB41001349C8700846007900F071
:103660000F000979090901EB810100EB41000D49C7
:1036700008710846407900F00F004979090901EB0B
:10368000810100EB4100074948710846807900F04C
:103690000F008979090901EB810100EB4100014923
:1036A000887110BD1200002008B501211020FDF71F
:1036B00095FF4FF4C050ADF8000010208DF80300C6
:1036C00003208DF8020069468A48FDF7CBFC0120F3
:1036D000894908608949C1F8AC0108BD10B5854821
:1036E000406820F47040834948600846406840F4D0
:1036F0004050486001208049091F08607F49C1F897
:10370000B0010420FFF719F900207B49091F086068
:103710000420FFF712F900207849C1F8B00110BD6C
:1037200010B57448406820F47040724948600846FB
:10373000406840F44050486000206F4908606F497D
:10374000C1F8AC010420FFF7F8F801206A490860CD
:103750006A49C1F8AC010420FFF7EFF810BD10B5BD
:1037600000246448406820F470406249486008467C
:10377000406840F40040486001205F49091F08602C
:10378000FFF7DBF801205D49C1F8B001FFF7D5F87C
:1037900007E0601CC4B2FA2C03DDFFF72CFD01200A
:1037A00010BD5548843800680028F2D1524908609D
:1037B00000BFF5E710B500204F4908604D4840684C
:1037C00020F470404B4948600846406840F440503F
:1037D000486000204949C1F8AC010220FFF7ADF86C
:1037E0000120454908600220FFF7A7F8002043495F
:1037F000C1F8B00110BD10B500203F4908603D4838
:10380000406820F470403B4948600846406840F4F6
:103810004050486001203949C1F8AC010220FFF74F
:103820008CF80120344908600220FFF786F8002058
:103830003249C1F8B00110BD70B504462D4840684A
:1038400020F470402B4948600846406840F44050DE
:103850004860002028490860002517E0E009264953
:10386000091F08606006040E0220FFF766F80120B9
:103870002249C1F8B0010220FFF75FF800201E497D
:1038800008600220FFF759F8681CC5B2082DE5DB77
:1038900070BD70B5054600241648406820F470409D
:1038A000144948600846406840F4004048600026DB
:1038B00016E00020104908600220FFF73EF80120C2
:1038C0000E49C1F8B0016006040E0B488438006848
:1038D00008B1601CC4B20120FFF72FF8701CC6B2FB
:1038E000082EE6DB15B9FFF786FF01E0FFF762FF60
:1038F000204670BD00100140B0012242000022426B
:1039000010B5FFF7D1FE10BD70B504460026FFF7D5
:10391000E5FE2546E11704EB11610912A02202EB36
:103920004101C8B2FFF788FFFFF719FFE11704EB69
:1039300011610912A4EB0121C8B2FFF77DFFFFF767
:103940000EFFFFF7CBFEA120FFF776FFFFF707FF83
:103950000020FFF79EFF0646FFF7E2FE304670BDEF
:1039600070B504460E46FFF7B9FE2546E11704EB95
:1039700011610912A02202EB4101C8B2FFF75CFFFE
:10398000FFF7EDFEE11704EB11610912A4EB012131
:10399000C8B2FFF751FFFFF7E2FE3046FFF74CFFDA
:1039A000FFF7DDFEFFF7BCFE0A20FEF7EAFF70BD61
:1039B0002DE9F04105460E461746002409E0E200D5
:1039C00026FA02F2D1B22A1990B2FFF7C9FF601CA1
:1039D000C4B2BC42F3DBBDE8F0812DE9F0410746FB
:1039E0000C460026002509E036023919491B491EFC
:1039F00088B2FFF789FF0644681CC5B2A542F3DB15
:103A00003046BDE8F08110B5FF20FFF77DFF04468A
:103A1000552C01D1002010BD5521FF20FFF7A0FF3C
:103A2000FF20FFF771FF0446552C01D10020F2E77B
:103A30000120F0E770B506460C46154608E0304612
:103A4000721C96B2FFF760FF04F8010B681E85B286
:103A5000002DF4D170BD70B505460C46164606E043
:103A600021782846FFF77CFF681C85B2641C300073
:103A7000A6F101018EB2F3D170BD70477047704757
:103A800070477047754600F029F8AE460500694654
:103A9000534620F00700854618B020B5FEF722FFF8
:103AA000BDE820404FF000064FF000074FF000083F
:103AB0004FF0000B21F00701AC46ACE8C009ACE8C0
:103AC000C009ACE8C009ACE8C0098D46704704469F
:103AD000AFF300802046FCF772FB000000487047FF
:103AE0009800002010B591EA030F48BF83F000430F
:103AF00000F1F283841A71EB030C05D2121943EB27
:103B00000C03001B61EB0C01DFF824E14FEA1154B8
:103B1000A4EB135C1EEA430F18BF9EEA445F73D008
:103B200023EA0E03DCF1200E21EA045143F4801352
:103B300032D322FA0CFE10EB0E0023FA0CFE41EBFE
:103B40000E01CCF1200E03FA0EFE10EB0E0051F127
:103B50000001B1F5801FCCF1200E32D201EB0451EF
:103B600012FA0EF2BDE8104058BF7047401C38BF33
:103B70005FEA420218BF7047002814BF20F001001E
:103B800041F100014FEA410313F5001F38BF7047B0
:103B9000A1F1C04100F050BB012A43EB0302ACF19C
:103BA000200CDCF11F0E32BF4FF0000E23FA0CF395
:103BB00010EB030041EB0451B4EB115FD0D0A1EB4B
:103BC000045101F5801149085FEA300001EB04510E
:103BD0000ED350F1000038BF12FA0EFE08D1BDE836
:103BE0001040C9E7401C38BF5FEA4202CAD1C3E7B0
:103BF000BDE810404FEA410313F5001F38BF70477E
:103C0000A1F1C04100F018BB9EEA445F08D011EA60
:103C10005E0FBDE8104004BF01F000410020704776
:103C2000BDE8104070B500F0B9FA00BF64FBBE3EBD
:103C30000000E0FF491058BFC1F140415B1058BF80
:103C4000C3F140438B42EFF3008070472DE9C04140
:103C500030B4DFF8A0C23CEA111418BF3CEA1314D8
:103C600000F0EC8081EA03051CEA111444EAD574E3
:103C700018BF1CEA131500F0C780A4EB05044FF031
:103C8000004545EAC12145EAC32341EA505143EAD0
:103C9000525304F17F74994204F500344FEAC02076
:103CA0004FEAC22208BF904200F09C804FEA1365A1
:103CB0000FF24016765D4FEA134506FB05F7C7F194
:103CC000807706FB07F74FEAD737A7FB03687642F2
:103CD000C8F58038A7FB06CE38BFA8F1010807FB5E
:103CE00008E64FF0000EA6FB028CE6FB03CEDCF1EB
:103CF000000CCEF1004E38BFAEF1010EA6FB0C5801
:103D00004FF000074FF00005E6FB0E87A1FB08C649
:103D1000A0FB07CE16EB0E0645F10005E1FB07659B
:103D200015F1E04E7EBFA4F580345FEA46066D4192
:103D300016F1800745F100054FEA17274FEA06669E
:103D400047EA0567A6F1DE46B6F1805F4FEA152522
:103D50001FD9384624F0010C05EBC471BCF1FE6F8D
:103D600001EB0C1102D8F0BCBDE8008124425CBF1D
:103D700001F5801E9EEAC47F02D4F0BCBDE800813C
:103D8000244238D4F0BCA1F1C041BDE8004100F0AC
:103D900053BA4FEAD22242EA43524FEAD323A7FB57
:103DA00002864FEAD02040EA415007FB03661EEA34
:103DB0000E0F4FEAD12105FB026658BFA6EB005655
:103DC000B6EB00564FEA520E4EEAC37E18EB0E0ECB
:103DD00056EB530EBDD518EB02085E417F1C55F122
:103DE0000005B6E74FF480154FF000074FF00006CE
:103DF0004FF00008ADE7F0BC4FF0000001F1C0410A
:103E000001F00041BDE8008111EA0C1F0CEA131516
:103E100000D00CE013EA0C1F00F025804FF00000EA
:103E2000F0BC81EA030101F00041BDE80081F0BC73
:103E3000BDE8004181EA030100F0FEB9F0BCBDE835
:103E4000004170B500F0AAF9097EFC3E00F007B809
:103E500081EA03014FF0000001F00041704781EA60
:103E6000030100F0E9B9F0BCBDE800414FF00000EB
:103E700021497047FFFDFBF9F7F5F4F2F0EEEDEBA9
:103E8000E9E8E6E4E3E1E0DEDDDBDAD8D7D5D4D358
:103E9000D1D0CFCDCCCBCAC8C7C6C5C4C2C1C0BFA4
:103EA000BEBDBCBBBAB9B8B7B6B5B4B3B2B1B0AFAA
:103EB000AEADACABAAA9A8A8A7A6A5A4A3A3A2A18E
:103EC000A09F9F9E9D9C9C9B9A9999989797969549
:103ED00095949393929191908F8F8E8E8D8C8C8BE5
:103EE0008B8A89898888878786858584848383826D
:103EF000828181800000FF070000F87F51EA030CF7
:103F000017D41CF5801F58BFBCF5801F00F1068038
:103F1000994218BF704708BF9042704707D711F504
:103F2000801F58BF13F5801F19D4994270478942EA
:103F300070471CF5801F08D5BCF5801FF7D58B4254
:103F400018BF704708BF824270474FF4001C1CEB3B
:103F5000410F38BF1CEB430F01D28B42704770B545
:103F600000F01CF9922449004FF000514FF08053AB
:103F7000FFF760BE4FEA1153A3F58063D3F11E0330
:103F8000A8BFD3F1200C08DB4FF0004242EAC12267
:103F900052EA505232FA03F0704709420BD4102B08
:103FA000C4BF0020704703F5787CBCF1FF3F05D00B
:103FB0004FF0FF3070474FF00000704770B500F0D1
:103FC000EDF800BF4992248000207047F0E7000020
:103FD00051EA030C17D41CF5801F58BFBCF5801F95
:103FE00000F10680994218BF704708BF90427047A1
:103FF00007D711F5801F58BF13F5801F19D49942B8
:104000007047894270471CF5801F08D5BCF5801F9A
:10401000F7D58B4218BF704708BF824270474FF4F4
:10402000001C1CEB410F38BF1CEB430F01D28B422D
:10403000704770B500F0B2F8922449004FF000517B
:104040004FF08053FFF7F6BDDFF848C170B51CEAAA
:10405000111E1EBF1CEA13159EEA0C0F95EA0C0FE9
:1040600000F06F8081EA030423EA4C134EEAD47E09
:1040700021EA4C1141F4801143F48013AE44A1FBBA
:10408000024CA0FB0365AEF17F7E361955EB0C05A3
:10409000A1FB034C4CF10003A0FB021C16EB0C0629
:1040A000654153F10003094218BF46F0010613F4BD
:1040B000007F0BD14FEA03314FEA0530340341EA68
:1040C000155140EA16506FF003020AE04FEAC3218F
:1040D0004FEAC520F40241EA555140EA56506FF0CC
:1040E000020202EB2E4201EB025585EACE710AD0A4
:1040F0005FEA440C18BF24F0004450F1000041F185
:10410000000120EAD47040F2FE7C624500D270BD0E
:10411000A84214BF4FF080444FF04044002E08BF27
:104120000024BEF1806FA8BFA1F1C041BDE870407E
:1041300080F282804FF0000001F1C04101F00041A7
:1041400070479EEA0C0F0CEA131518BF95EA0C0F86
:1041500006D04FF0000081EA030E0EF0004170BD62
:1041600000F01CF88900013E00F007B800F009B823
:104170004FEA430C5FEA5C5C08D081EA030100F07F
:104180005BB84FEA410C5FEA5C5CF6D14FF000008F
:10419000014970470000FF070000F87F0EF1020E92
:1041A0002EF0030E5EF8046B364205D4012A43EB71
:1041B000030515F5001F12D8012841EB010C1CF571
:1041C000001F0CD80ED14FEAD17C15F5001F0CEB67
:1041D0004C0C0CF1020C08BF4CEBD37C04E04FF00C
:1041E000080C01E04FEAD37C0CEB4C0526FA05F6EF
:1041F00006F00706B6F1040C06D20EEB860CBDE8FD
:1042000070404CF0010C6047DFE80CF0090B020233
:104210004FF000414FF00000A1F5002170BD19469C
:104220001046012851EB010418BFD4F5001484BFD7
:10423000002001F0004170BD0808A0F500114FEA10
:104240003101704753EA010C17D41CF5801F58BF89
:10425000BCF5801F00F106808B4218BF704708BF75
:104260008242704707D713F5801F58BF11F5801F92
:1042700019D48B4270479B4270471CF5801F08D5AC
:10428000BCF5801FF7D5994218BF704708BF904210
:1042900070474FF4001C1CEB430F38BF1CEB410F61
:1042A00001D2994270470FB40CBC03BCFFF7C1BEEA
:1042B00091EA030F10B581F000413FF51BAC83F08C
:1042C000004300F009B8000010B591EA030F48BFA1
:1042D00083F000433FF50EAC841A71EB030C07D258
:1042E00012198CF0004C43EB0C03001B61EB0C012A
:1042F000DFF8A4E14FEA1154A4EB135C1EEA430F6C
:1043000018BF9EEA445F00F0B08023EA6E03524279
:1043100021EA0451C3EB6E0338BF5B1EDCF1200EB3
:1043200025D322FA0CFE10EB0E0043FA0CFE41EBF3
:104330000E01CCF1200E03FA0EFE10EB0E0051F12F
:104340000001CCF1200E29D412FA0EF201EB045137
:10435000BDE8104058BF7047401C1CBFB2F1004F71
:10436000704700280CBF491C20F00100704712EB79
:10437000020E43EB030218BF4FF0010E4EEA420259
:10438000ACF1200CDCF11E0E54D943FA0CFE10EBFC
:104390000E0051F1FF31CCF11E0ED5D50EF1010EFC
:1043A00012FA0EFE404141EB010101EB445C5FEA71
:1043B0005C5C10D910EBDE7001EB045138BFBEF12C
:1043C000004FBDE8104018BF704700280CBF491CC3
:1043D00020F00100704730D24FEAD42C11F50011C3
:1043E00024F400641BD0B1FA81F20B3AA41AA41E83
:1043F000D2F12003914030FA03F31943904001EBCE
:10440000CC71002C01EB0451BDE81040A8BF7047EF
:1044100001F1C0414FF0000001F000417047B0FAD7
:1044200080F310FA03F100D110BDE41A173C4805DF
:10443000C90AE4E701EB045110BD491001EB045136
:10444000BDE810404FEA300002E04FF00001704735
:104450004A0008BF0042F8D0B2F5001F28BF7047DD
:1044600001F000414FF0000070479EEA445F07D022
:1044700011EA5E0FBDE8104004BF00210020704724
:10448000BDE8104070B5FFF789FE00BF40DFF63E83
:1044900083F00041104670470000E0FFBC44000874
:1044A00000000020980000006C010008544500083E
:1044B000980000206006000088010008000001014B
:1044C0000101000000007C00F401010000000F2643
:1044D000151C050411000000000000000000000091
:1044E00000000000000000000000000000000000CC
:1044F00000000000000000000000000000000000BC
:1045000000E06F400000000000000000000000001C
:104510000000000000A24A040000000000000000AB
:104520000102030406070809000000000102030459
:10453000010203040607080902040608000000003F
:10454000000000000000000000000000000000006B
:044550000000000067
:0400000508000131BD
:00000001FF
